:020000040800F2
:10000000B00A002079020008433E00088937000842
:10001000413E00086F040008014400080000000091
:10002000000000000000000000000000473E000843
:100030004D05000800000000453E0008493E00084C
:10004000930200089302000893020008930200083C
:10005000930200089302000893020008930200082C
:10006000930200089302000893020008710400083C
:10007000930200089302000893020008930200080C
:1000800093020008930200089302000893020008FC
:1000900093020008930200089302000893020008EC
:1000A00093020008930200089302000893020008DC
:1000B00093020008930200089302000893020008CC
:1000C00093020008930200089302000893020008BC
:1000D00093020008930200089302000893020008AC
:1000E000930200089302000893020008930200089C
:1000F000930200089302000893020008930200088C
:10010000930200089302000893020008930200087B
:10011000930200089302000893020008930200086B
:10012000930200089302000893020008930200085B
:10013000930200089302000893020008930200084B
:10014000930200089302000893020008930200083B
:10015000930200089302000893020008930200082B
:10016000930200089302000893020008930200081B
:10017000930200089302000893020008930200080B
:1001800093020008930200089302000893020008FB
:100190009302000800000000930200089302000888
:1001A00093020008930200089302000893020008DB
:1001B00093020008930200089302000893020008CB
:1001C00093020008930200089302000893020008BB
:1001D000930200089302000800F002F800F03CF8D7
:1001E0000AA090E8000C82448344AAF10107DA4592
:1001F00001D100F031F8AFF2090EBAE80F0013F0A8
:10020000010F18BFFB1A43F00103184774440000A4
:1002100094440000103A24BF78C878C1FAD8520735
:1002200024BF30C830C144BF04680C607047000070
:100230000023002400250026103A28BF78C1FBD8EF
:10024000520728BF30C148BF0B6070471FB504F08C
:10025000F1F91FBD10B510BD00F0CFF81146FFF742
:10026000F5FF04F0DFF800F0EDF803B4FFF7F2FF5C
:1002700003BC00F0F5F80000094880470948004732
:10028000FEE7FEE7FEE7FEE7FEE7FEE7FEE7FEE746
:10029000FEE7FEE704480549054A064B70470000A3
:1002A000B93E0008D9010008B0040020B00A0020BF
:1002B000B0060020B006002053EA020C00F069806E
:1002C0002DE9F04B4FF00006002B1FBFB3FA83F56A
:1002D00003FA05F424FA05F65E4012BF1643B2FA9B
:1002E00082F502FA05F4C5F120051EBF22FA05FCCD
:1002F00044EA0C04203556EA044C4FEA144418BF73
:10030000641C4FF000084FF00009904271EB030CA1
:1003100039D3002919BFB1FA81F701FA07F6B0FA0B
:1003200080F700FA07F6C7F120071EBF20FA07FC86
:1003300046EA0C062037B6FBF4FCA7EB0507103F96
:1003400007F01F0BCBF120060CFA0BFB2CFA06F67C
:1003500044BFB3460026202FA4BF5E464FF0000BDB
:100360005BEA060C08BF4FF0010B19EB0B09ABFB66
:10037000027C48EB0608C01B06FB02CC0BFB03CC3F
:1003800071EB0C01C1E70B46024641464846BDE809
:10039000F08B13B54FF000004FF00001AFF3008079
:1003A000BDE81C4070474FF0000200B5134694466C
:1003B0009646203922BFA0E80C50A0E80C50B1F1BD
:1003C0002001BFF4F7AF090728BFA0E80C5048BFD1
:1003D0000CC05DF804EB890028BF40F8042B08BF6F
:1003E000704748BF20F8022B11F0804F18BF00F86B
:1003F000012B7047704770477047754600F02CF826
:10040000AE4605006946534620F00700854618B001
:1004100020B5FFF73FFFBDE820404FF000064FF04A
:1004200000074FF000084FF0000B21F00701AC4629
:10043000ACE8C009ACE8C009ACE8C009ACE8C00948
:100440008D46704710B50446AFF300802046BDE8E6
:100450001040FFF70ABF0000004870474C0400201E
:1004600001491820ABBEFEE7260002007047FEE7F8
:10047000014801F0BBBA0000EC03002010B5016890
:100480000E4CCAB21423083AA14203D2B2FBF3F2D3
:100490000B4904E0B2FBF3F2094920310832436C06
:1004A00002F01F0223F003031944816404498031E0
:1004B000C16401219140016510BD000008040240A3
:1004C000000802400179084A01F07F0102EB810235
:1004D0004265054A4432491E826501F01F0201212E
:1004E0009140C16570470000FC08024010B51448F7
:1004F00000F068FF134C60601148243000F062FF88
:10050000A0600F48483000F05DFFE0600C486C30A0
:1005100000F058FF20610A48B8300068D0F888031E
:100520006061606900F00100A0616069C0F3800053
:10053000E0610221044801F045FC206210BD00008A
:10054000100100200000002000040048704772B62F
:10055000FEE700002DE9F84F4FF000090446CDF802
:1005600000900D4694F85820DFF8EC8361694F46FF
:100570004846012A0AD00126F84A84F8586041B159
:10058000296A012905D0A36EEBB129E00220BDE85C
:10059000F88F6868092838D1A96A4FF4785041B1BA
:1005A0002B6801F07C0100EA53400843E96A0843E4
:1005B00002E0296800EA51402168CB6C13400343F4
:1005C000CB64606621E0C4E91971A96A286A31B177
:1005D00001F07C01401E0843E96A084300E0401E28
:1005E00029682B79C1F3846103F01F03994001430B
:1005F000A06E401EA066636E43EA0103636604D1E9
:100600002168C86C10401843C864206803F0CDF816
:1006100058B995F8250098B12068C16895F826204A
:1006200021F4401141EA4251C160206803F0C5F84D
:100630008246206803F0B9F85AEA00000DD0FBE0CA
:1006400095F8260095F82410400540EA01512068ED
:10065000C26822F440121143E6E7A86A30B1E86AA2
:1006600020B195F8250001285ED003E095F825001B
:10067000012804D02068C16821F0007103E02068DF
:10068000C16841F00071C16095F83000012852D076
:100690002068016921F002010161AA6829682068C7
:1006A000B2F1004F38D003F09BF82068416921F087
:1006B0000041416120686969C268C2F3C102520009
:1006C00091402A69042A44D000EB82002B68026E14
:1006D000DFF88CC203F0F84302EA0C020B431A4322
:1006E00042F00041016622682869A96902EB800096
:1006F000026E22F080720A430266297F226828690E
:10070000012923D05FF0000102EB8000026E22F08D
:1007100000720A4302668FE0002203F061F820684D
:10072000416941F00041C4E7E06D40F02000E06520
:100730004FF00109A8E7D5E90D10014320680269CF
:1007400022F4FF7242F002021143A5E74FF000715C
:10075000DAE7002103F01FF8400320684FF00001A2
:1007600072D003F018F890FAA0F0B0FA80F128687F
:1007700042036ED090FAA0F0B0FA80F0814204D12A
:1007800000221146206803F042F80121206803F09E
:1007900002F8400320684FF001015DD002F0FBFF3A
:1007A00090FAA0F0B0FA80F029684A0359D091FA83
:1007B000A1F1B1FA81F1884204D10022012120681F
:1007C00003F025F80221206802F0E5FF40032068CD
:1007D0004FF0020148D002F0DEFF90FAA0F0B0FA2C
:1007E00080F029684A0344D091FAA1F1B1FA81F16D
:1007F000884204D100220221206803F008F8032176
:10080000206802F0C8FF400320684FF0030133D096
:1008100002F0C1FF90FAA0F0B0FA80F029684A0314
:100820002FD091FAA1F1B1FA81F1884204D10022CE
:100830000321206802F0EBFF2068816811F0010FAE
:1008400022D0B6E000E004E002F0A5FFC0F384612E
:100850008DE7C0F3846091E702F09DFFC0F38460F0
:10086000A2E7C1F38461A6E702F095FFC0F38460BC
:10087000B7E7C1F38461BBE702F08DFFC0F384608A
:10088000CCE7C1F38461D0E72B7B296850F8B02F07
:10089000C1F3120C22EA0C0203F0180C314B23FABC
:1008A0000CF30B401A430260E96841457ED1286889
:1008B00041031CD090FAA0F1B1FA81F1491C01F07A
:1008C0001F0109294FEA403132D8002912D000BF58
:1008D00090FAA0F1B1FA81F101F1010101F01F01DB
:1008E00006FA01F609D100BFC0F3846109E0C0F344
:1008F0008461E3E7C0F38461EEE790FAA0F1B1FA16
:1009000081F101F1010101F01F0146EA816102D18B
:10091000C0F3846003E090FAA0F0B0FA80F000F138
:10092000010000F01F0000EB400041EA00513AE0F6
:1009300000290ED090FAA0F1B1FA81F101F1010184
:1009400001F01F0106FA01F60ED100BFC0F3846169
:100950000EE0C0F38461F1E700007F400040100426
:1009600000F0FF03FFFF070090FAA0F1B1FA81F158
:1009700001F1010101F01F0146EA816102D1C0F3DA
:10098000846003E090FAA0F0B0FA80F000F101007A
:1009900000F01F00394A00EB400002EB005041EA32
:1009A000000141F00071AA68206800E001E002F057
:1009B00017FF33482B6803425CD022684FF0A04CED
:1009C000304D3148314E624501D0AA4201D1014635
:1009D00000E031468968DFF8B88001F0E0714345F6
:1009E00003D0DFF8B080434520D15FEA01281DD451
:1009F000624505D0284B9A423CD1AA4200D03046ED
:100A000041F40001826822F0E0720A4382602348C8
:100A100023490068B0FBF1F0801C00EB400080002F
:100A200000E0401E00900028FBD123E0DFF8748036
:100A300043450DD15FEAC1180AD4AA421AD01A4B15
:100A40009A4217D0624500D0304641F080710CE0E8
:100A5000DFF8588043450DD14B020BD4AA4209D090
:100A6000624500D0304641F48001826822F0E07295
:100A70000A43826084F85870484688E5000020FEEA
:100A800000000880000100500003005000070050E3
:100A9000000021C31000C090000600503400002068
:100AA000400D0300000052C700050050000084CB39
:100AB0002DE9F04F044690F858009BB00F464FF0D8
:100AC000000B012812D0012084F858000026179648
:100AD000189620684FF0A048DFF81C91DFF81CA1A1
:100AE000474D404506D12846009508E002201BB03E
:100AF000BDE8F08F48450AD15046CDF800A002F07D
:100B00005CFE0090206802F058FE40B109E0E06D04
:100B100040F02000E06584F858600120E7E7009885
:100B200050B1E06D40F02000E0654FF0010B00BFD8
:100B300084F858605846DAE720684146884201D078
:100B4000A84201D12F4800E02F48D7F800C02F4B12
:100B500040F61F72BCF1000F2DD0D0F808C094F8F9
:100B600038802CF4604C4CEA483CD7F804804CEABE
:100B7000080CC0F808C0D4F800C08C4501D0AC45C2
:100B800004D18968AB6801F0010109E0D9F80810C7
:100B9000DAF8085001F0010105F001059B682943CE
:100BA00003F001031943C3D1BB6839681943836853
:100BB000934319431DE0876827F4604787602768DF
:100BC0008F4201D0AF4204D18968AB6801F00101C6
:100BD00009E0D9F80810DAF8085001F0010105F031
:100BE00001059B68294303F001031943A0D18168E3
:100BF000914381609CE70000000400500005005014
:100C00000001005000030050000700500006005093
:100C10002DE9F84F00270446009790F85800DFF8B8
:100C200018840D46B946012811D0012684F8586071
:100C3000206802F0BEFD60B1E06D40F02000E0658C
:100C40005FF0010784F858903846BDE8F88F02201D
:100C5000FBE7D5E900210C23206803EA911318442F
:100C6000036B01F01F014FF01F0C0CFA01FCC2F3E3
:100C7000846223EA0C038A4013430363206802F072
:100C800098FD8246206802F08CFD5AEA00003CD1B3
:100C9000AA6829682068B2F1004F37D002F091FDB0
:100CA0002068416921F00041416120686969C2689A
:100CB000C2F3C102520091402A69042A31D000EBEC
:100CC00082002B68026EDFF874C303F0F84302EA77
:100CD0000C020B431A4342F00041016620682A6966
:100CE000A96900EB8200026E22F080720A4302665C
:100CF000297F20682A69012910D0002100EB820099
:100D0000026E22F000720A4302667DE0002202F0C9
:100D100058FD2068416941F00041C5E74FF000717E
:100D2000ECE7002102F031FD400320684FF00001A4
:100D300072D002F02AFD90FAA0F0B0FA80F1286893
:100D400042036ED090FAA0F0B0FA80F0814204D154
:100D500000221146206802F052FD0121206802F0B5
:100D600014FD400320684FF001015DD002F00DFD3D
:100D700090FAA0F0B0FA80F12868420359D090FAB6
:100D8000A0F0B0FA80F0814204D100220121206855
:100D900002F035FD0221206802F0F7FC40032068D4
:100DA0004FF0020148D002F0F0FC90FAA0F0B0FA47
:100DB00080F12868420344D090FAA0F0B0FA80F0A5
:100DC000814204D100220221206802F018FD032193
:100DD000206802F0DAFC400320684FF0030133D0B2
:100DE00002F0D3FC90FAA0F0B0FA80F12868420338
:100DF0002FD090FAA0F0B0FA80F0814204D1002206
:100E00000321206802F0FBFC2068816811F0010FCB
:100E100022D0ACE000E004E002F0B7FCC0F3846153
:100E20008DE7C0F3846091E702F0AFFCC0F384610A
:100E3000A2E7C0F38460A6E702F0A7FCC0F38461D8
:100E4000B7E7C0F38460BBE702F09FFCC0F38461A6
:100E5000CCE7C0F38460D0E72A7B296850F8B03F24
:100E6000C1F3120C23EA0C0302F0180C744A22FAA4
:100E70000CF20A4013430360E968414577D12868C2
:100E800041031CD090FAA0F1B1FA81F1491C01F0A4
:100E90001F0109294FEA403132D8002912D000BF82
:100EA00090FAA0F1B1FA81F101F1010101F01F0105
:100EB00006FA01F609D100BFC0F3846109E0C0F36E
:100EC0008461E3E7C0F38461EEE790FAA0F1B1FA40
:100ED00081F101F1010101F01F0146EA816102D1B6
:100EE000C0F3846003E090FAA0F0B0FA80F000F163
:100EF000010000F01F0000EB400041EA005132E029
:100F000000290ED090FAA0F1B1FA81F101F10101AE
:100F100001F01F0106FA01F606D100BFC0F384619B
:100F200006E0C0F38461F1E790FAA0F1B1FA81F133
:100F300001F1010101F01F0146EA816102D1C0F314
:100F4000846003E090FAA0F0B0FA80F000F10100B4
:100F500000F01F003B4A00EB400002EB005041EA6A
:100F6000000141F00071AA68206802F02AFC3648AE
:100F70002B6803423FF466AE21684FF0A04C334D1E
:100F80003348344E614501D0A94201D1024600E008
:100F900032469268DFF8C08002F0E072434503D029
:100FA000DFF8B880434521D15FEA02281ED46145AD
:100FB00006D02B4B99427FF445AEA94200D0304673
:100FC00042F40001826822F0E0720A438260254800
:100FD00025490068B0FBF1F0401C00EB40008000A8
:100FE00000E0401E00900028FBD12BE6DFF87C805B
:100FF00043450DD15FEAC2180AD4A942F5D01C4B73
:101000009942F2D0614500D0304642F080710CE048
:10101000DFF860804345E8D15302E6D4A942E4D02A
:10102000614500D0304642F48001826822F0E072CF
:101030000A43826006E6000000007F4000F0FF03E4
:10104000FFFF0700000020FE0000088000010050A4
:101050000003005000070050000021C31000C090A2
:101060000006005034000020400D0300000052C76D
:1010700000050050000084CBF8B54FF000050400D7
:101080002E46009502D0E06D10B107E00120F8BDBA
:10109000204600F009F9266684F8586020688168C7
:1010A000C1F3407119B18168734A114081602068B1
:1010B0008168C1F3007189B98168704A114041F0BB
:1010C000805181606E486F490068B0FBF1F04000CC
:1010D000801C00E0401E00900028FBD12068816841
:1010E000C1F3007141B9E16D41F01001E165216E7C
:1010F00041F001012166012502F05BFBE16DC906AB
:1011000000D430B1E06D40F01000E06501252846C4
:10111000F8BDE06D20F4807040F00200E0652068CA
:10112000816811F0010F27D14FF0A043564A984231
:1011300001D0904204D19968966801F001010AE05B
:1011400052498968524E01F00101B66806F0010665
:101150003143504EB66806F0010631430CD1984237
:1011600001D0904201D14C4800E04C48616882684F
:1011700022F47C120A438260E168E06B627F0843DC
:10118000A16841EA4231084394F8241040EA014042
:10119000012904D1218D424A02EB41410843E16A11
:1011A00029B101F47871226B014342EA01002268FF
:1011B000D1683C4B19400143D16020680169626BE2
:1011C00021F0406111430161206802F0EAFA70BB2E
:1011D000207F94F838102268800340EA4100D168EB
:1011E00044F2020399430143D1602069002820683A
:1011F00001690AD041F480310161206850F8C01FB4
:1012000022696FF30D01114307E021F48031016180
:10121000206850F8C01F6FF30D01016094F8400082
:1012200001280CD02068016921F001010161606989
:1012300001282068016B21F00F0111D013E0D4E9DF
:1012400011010843D4E913121143084321680A69C4
:1012500040F2FC739A43104340F001000861E6E756
:10126000226A521E11430163E06D20F0020040F03B
:101270000100E0654BE70000C0FFFF5FC0FFFF7F9C
:1012800034000020400D0300000100500004005015
:1012900000050050000600500003005000070050F9
:1012A0000000FEFF0740F0FF2DE9F0439BB006462B
:1012B000142115A8FFF777F854216846FFF773F853
:1012C0004FF40042316800259003394F394C4FF0FC
:1012D00003084FF09049B1F1A04F10D0364B99421E
:1012E0004AD111900092684601F09AFA08B1FFF7CE
:1012F0002EF93868401C3860012840D047E0119032
:101300000092684601F08CFA08B1FFF720F93868BE
:10131000401C3860012807D1E06C40F40050E064C4
:10132000E06C00F400501A90E06C40F00100E064C2
:10133000E06C179500F001001A900D20CDE915081A
:1013400015A9484600F024FC1D4C1C4820600520CF
:10135000C4E901058020C4E9035080006061800079
:10136000A0612020C4E90705204600F09DFB08B1DC
:10137000FFF7EDF87465A6621BB0BDE8F083E06C82
:1013800040F40050E064E06C00F400501A90E06C0F
:1013900040F00100E064E06C179500F001001A9045
:1013A0000220CDE9150815A9484600F0F1FBE3E756
:1013B00024000020001002400001005008000240FC
:1013C000EC03002000680068C0F3807070470000E4
:1013D0002DE9F84F04004FF000000546009003D0BF
:1013E00021680968002901DA0125FCE0617F21B943
:1013F00020772062204600F00BF921680868E66833
:1014000000F40003D4E90120104362693243104321
:10141000226910430A68754E324002430A60D4F8CC
:1014200000C0DCF8000000020ED56BB970487149AD
:101430000068B0FBF1F0401C00EB8000800000E091
:10144000401E00900028FBD16B486B4914308C453E
:1014500002D14FF400111EE06749091D8C4502D1ED
:101460004FF4800117E0644908318C4501D18906A9
:1014700011E061490C318C4502D14FF080410AE006
:101480005D4910318C4501D1C90604E0844501D184
:10149000012100E00221A269584B92465FEA82785E
:1014A000574E584AA3F10407A6F1040977D05FEA22
:1014B000CA6803F1040A06F1040B0BD5844501D078
:1014C000944501D1D44600E0DC46DCF8008048EACF
:1014D00001080AE0844501D0944501D1D44600E0DA
:1014E000DC46DCF8008028EA0108CCF8008094F89B
:1014F00018C0DFF818A15FEA8C68DFF80CC1D4F8D7
:10150000008009D5804502D0904500D0D446DCF853
:10151000008048EA010808E0804502D0904500D0EC
:10152000D446DCF8008028EA0108CCF80080D4F822
:1015300000C0844501D0944504D1DFF8CCC00CF143
:10154000080C03E0DFF8C4C00CF1080CCCF8001064
:1015500094F818C05FEA8C7CD4F800C009D58445A3
:1015600001D0944502D11E680E4308E033680B4356
:1015700009E0844501D0944503D11E688E431E6066
:1015800002E033688B433360237EDB070DD0236892
:10159000834201D0934203D1386808430CE00DE048
:1015A000D9F8002048460A4318E02368834201D056
:1015B00093420FD138688843386010E0844501D0E9
:1015C000944503D11E688E431E60EEE733688B435B
:1015D0003360EAE7D9F8002048468A430260607F1A
:1015E00008B9012060772846BDE8F88F0F7E00FF1C
:1015F00034000020400D030000020140240401409B
:1016000004040140180201402C0401400C04014074
:1016100030B587B0044614216846FEF7C4FE23683F
:10162000254C264903220220A3420FD1CB6C43F064
:101630000103CB64C96C029001F001010591802186
:10164000CDE9001269464FF0904010E01A4D002499
:101650002D1DAB420FD1CB6C43F00403CB64C96C9E
:1016600001F0040105918DE815006946144800F069
:101670008FFA07B030BD104D12480C35AB4209D17E
:10168000CB6C43F00203CB64C96C01F002010591FD
:1016900069140CE0084D1035AB42EAD1CB6C43F035
:1016A0000203CB64C96C01F002010591E9148DE8D5
:1016B00016006946DBE7000004020140001002400A
:1016C000000800480004004808B501004FF0000081
:1016D000009003D00A681368002B01DA012008BDCE
:1016E0004B7F012BFAD1136843F0010313600222F0
:1016F0004A770649064A0968B1FBF2F101EB81011C
:1017000000E0491E00910029FBD108BD34000020F3
:1017100080841E002DE9F04790460D4604004FF0EE
:10172000000A0FD075B1607901280ED04FF0010981
:1017300084F8059002202071A96808F01006042999
:1017400005D04AE00120BDE8F0870220FBE700F069
:101750004BFB07465FEA08004FF0030809D022E080
:1017600000F042FBC01B012803D92068406B000435
:1017700011D42068406B0004F2D42168686A0864C0
:1017800018E000BF00F030FBC01B01280BD9206817
:10179000406B002807DA206940F00800206184F8D7
:1017A00004800320CFE72068406B0028EADB216833
:1017B000686A48642068816C40F2FF32B24091430D
:1017C000AA6AB240114381642068C16CFF22B24012
:1017D0009143EA6AB2401143C164E869012808D123
:1017E0002268916B1F20B0408143286AB0400843B3
:1017F00090632068C06B0721B1408843A969012923
:1018000003D0022957D06969F1B300216B69AA6836
:101810001A430A434FF4807101FA06F398432B7977
:10182000012B00D0002111434FF4007202FA06F39D
:1018300098436B79012B00D0002220F440472868A0
:1018400042EA0108022838D057EA0007216808FA5E
:1018500006F03843C863206801684FF48042B24004
:10186000914301602268116840F6FE70B0408143E8
:10187000E868B0400843106020680168C022B240A8
:1018800091430160287B00E015E0297CC0F38300D0
:1018900001F03C0140EA811021680A6E40F60F73A6
:1018A000B3409A43B04002430A6684F80490002093
:1018B0006071504647E70121A8E701F01FFA064989
:1018C000884202D947F40047C0E704498842BDD99D
:1018D00047F48047BAE700000068890900B4C404EF
:1018E00070B5040003D02079002510B105E0012077
:1018F00070BD6571204600F007F802202071256157
:1019000001202071002070BD08B50C4A01680C4808
:10191000914207D1C16C41F48031C164C06C00F4C4
:10192000803009E0074A914207D1C16C41F400219F
:10193000C164C06C00F40020009008BD0008005095
:10194000001002400014005018B50024009448B163
:101950000068C46B0090104431B1143000900360F3
:10196000002018BD012018BD0830F7E7F8B5A8B170
:101970004279012A14D001224271022303710568C1
:101980002F6801F0100402FA04F637432F60154D5A
:10199000154E2D68B5FBF6F56D1C04E00120F8BD71
:1019A0000220F8BD6D1E0095002DFBD100290168B5
:1019B0000ED00D68A34005F478159D4203D14B6805
:1019C00043F002034B600271002141710846F8BDEB
:1019D0000B68C3F34403012BF5D14B6843F00103BB
:1019E000F0E7000034000020400D0300F0B4016C6B
:1019F0000C6801680D6890F8442002F01F0604226C
:101A000002FA06F3234211D06B070FD50B689B0631
:101A100003D40B6823F004030B6090F8441001F02A
:101A20001F018A40016C4A60016B1DE0022303FA2A
:101A300006F727424FF0000C4FF0010218D0AF0715
:101A400016D50C68A40605D40C6824F00A040C60B2
:101A500080F8252090F8441001F01F018B40016CA4
:101A60004B6080F824C0C16A00291AD0F0BC084736
:101A70000823B340234214D02B0712D50B6823F060
:101A80000E030B6090F84410036C01F01F0102FA82
:101A900001F15960C26380F8252080F824C0416BB1
:101AA000E2E7F0BC7047000070B504000CD02C4A8F
:101AB00021681420914209D22A4A0A44B2FBF0F06C
:101AC0008000606428480AE0012070BD244A524228
:101AD0000A44B2FBF0F080006064214808382064BA
:101AE000022084F825000A6847F6F0708243D4E9A2
:101AF00002031843D4E904352B431843A369184360
:101B0000E3691843236A1843104308602046FEF730
:101B1000B5FCA0680025B0F5804F00D16560207944
:101B2000A16C00F07F000860D4E913014160606897
:101B3000401E032808D82046FEF7C4FC606D0560EF
:101B4000D4E91601416002E06565A565E565E563D8
:101B5000012084F8250084F82450002070BD000086
:101B600008040240F8FFFDBF0000024070B50446C3
:101B700000F03AF90546601C02D00448406804446D
:101B800000F032F9401BA042FAD370BD28000020BB
:101B90002DE9F04FDFF80C92002301260325A9F16F
:101BA000040B85B00F2709F1040AABF1040EF1E034
:101BB00006FA03FC12EA0C027ED00C7904F003044E
:101BC000012C01D0022C20D1846800945C0005FA1D
:101BD00004F80494009C24EA08040094D1F80C80D2
:101BE000049C08FA04F8009C48EA0408C0F808803D
:101BF000446824EA0C0491F804C0CCF3001C0CFAED
:101C000003FC4CEA040CC0F804C00C79E443A407BC
:101C100002D18C68012C0ED0C4684FEA430805FA43
:101C200008FC24EA0C04D1F808C00CFA08FC4CEAC1
:101C3000040CC0F80CC00C7904F00304022C16D17B
:101C4000DC0800EB840CCDF808C0DCF820C05C0791
:101C50004FEAD46807FA08F42CEA040C0C6904FA79
:101C600008F444EA0C04DDF808C0CCF8204004680D
:101C70004FEA430805FA08FC24EA0C0491F804C072
:101C80000CF0030C0CFA08FC4CEA040CC0F800C081
:101C90004C6814F4403F7CD0434CD4F860C04CF006
:101CA000010CC4F860C0246E23F0030C04F001049E
:101CB00000943E4C644400E06BE00294A4684FEA58
:101CC000837C4FEA1C7807FA08FC24EA0C04B0F184
:101CD000904F06D0DFF8D8C0604505D14FF0010C19
:101CE00020E04FF0000C1DE0DFF8C8C0604502D1D5
:101CF0004FF0020C16E0DFF8C0C0604502D14FF093
:101D0000030C0FE0DFF8B4C0604502D14FF0040CC3
:101D100008E0DFF8ACC0604502D14FF0050C01E0EF
:101D20004FF0060C0CFA08FC4CEA040C029CC4F8B8
:101D300008C0D9F80040CC46D1F8048094435FEA4B
:101D4000C82800D51443CCF80040DAF80040D44647
:101D5000D1F8048094435FEA882800D51443CCF876
:101D60000040DBF80040DC46D1F8048094435FEA91
:101D7000883800D51443CCF80040DEF80040F44623
:101D8000D1F8048094435FEAC83800D51443CCF8F6
:101D900000405B1C0C682246DC407FF409AF05B0B4
:101DA000BDE8F08F0804014000100240000001402F
:101DB0000004004800080048000C004800100048DB
:101DC000001400480069084000D0012070474269B3
:101DD00021EA02030A4043EA0241816170470AB1E5
:101DE00081617047816270470148806870470000D8
:101DF0002800002010B590F8DC20012A21D0012213
:101E000080F8DC20022380F8DD304B1C1BD00368F7
:101E1000D3F8CC4344F00204C3F8CC430368D3F8AE
:101E2000CC4324F00C040C43C3F8CC430168D1F834
:101E3000CC3343F00103C1F8CC3380F8DD2000201F
:101E400010BD022010BD0168D1F8CC3323F002038D
:101E5000C1F8CC33EAE7000070B590F8DD30022B12
:101E60003CD090F8DC30012B38D0012500F8DC5F45
:101E7000022343701388948803F4E053C4F30804E6
:101E80001C4313896FF07E4603F400732343148AC6
:101E900004F480441C43938903F400432343948A4D
:101EA00006EA04441C43936903F000732343146A55
:101EB000D26904F080441C4302F00042224350F8EF
:101EC000DC3CB82404EBC1141959054E31401143D0
:101ED0001951457000210170084670BD022070BD87
:101EE0000020003C2DE9F04F90F8DD30022B26D089
:101EF00090F8DC30012B22D04FF0010B80F8DCB0E1
:101F0000022380F8DD300768D7F8D043D7F8D43300
:101F100015784FF4007805F00106C5F340054FF43D
:101F2000F04C4FF400494FF0000A08297ED009DC3C
:101F3000012935D0022947D0042907D159E00220D0
:101F4000BDE8F08F10296FD020296ED0072180F8CE
:101F5000DD1080F8DCA000BF90F8DD1007297CD0F0
:101F600004F07F31C7F8D013056848F2800123EAF6
:101F70000102C5F8D4230268D2F8D05304F08034AB
:101F80002543C2F8D0530268D2F8D4430B401C4317
:101F9000C2F8D44380F8DDB080F8DCA00020CFE7A1
:101FA000117924F0FE0401F00201214341EA860484
:101FB00023F4803141EA0543117A127B01F0780164
:101FC000214302F0800412E0516824F47E4408EAC0
:101FD0000121214341EA862423F4003141EA4543AB
:101FE00091680CEA01212143D46809EA04240C43D6
:101FF000B2E791884FF4003C24F47E040CEA0141DE
:10200000214341EA864423F4802141EA8543118932
:102010004FF4F00505EA0141214392894FF4000491
:1020200004EA0244E3E701E01BE02EE011794FF0FF
:10203000007C24F07E440CEA0161214341EA86647D
:1020400023F4002141EAC543117A4FF0F04505EA37
:1020500001612143127B2C0100E02BE004EA0264C1
:10206000C5E7117923F0FE0301F00201194341EAAB
:10207000860121F4801141EA0553117A127B01F0A7
:102080007801194302F0800312E0516823F47E4383
:1020900008EA0121194341EA862121F4001141EAAD
:1020A000455391680CEA01211943D36809EA0323D7
:1020B0000B4351E7012043E710B5CB0706D0036877
:1020C000D3F8D04362F30004C3F8D0438B0706D59E
:1020D0000368D3F8D04362F30824C3F8D0434B0716
:1020E00006D50368D3F8D04362F31044C3F8D04355
:1020F0000B0706D50368D3F8D04362F31864C3F81E
:10210000D043CB0606D50368D3F8D44362F300046A
:10211000C3F8D443890606D50068D0F8D41362F317
:102120000821C0F8D41310BD10B590F8DD20022AA4
:1021300018D090F8DC20012A14D0012200F8DC2FFE
:102140000223437050F8DC3CD3F8D44301F04071D3
:1021500024F040740C43C3F8D44342700021017052
:10216000084610BD022010BD38B5040056D002202C
:1021700084F8DD000025C4F8E050C4F8E450C4F849
:10218000E850C4F8EC50C4F8F050C4F8F450C4F867
:10219000F850207AC0071BD021492068884208D116
:1021A0002048016E41F080610166006E00F08060A1
:1021B00000902168086820F44042208A00F44040E2
:1021C000104320F44052A08A00F4405010430860AD
:1021D000204600F029F8207A800708D52168086891
:1021E00020F44072A08900F4407010430860012080
:1021F00084F8DD0084F8DC505FF00001C1EBC10021
:1022000004EB8000491C8561C561056245628562F9
:10221000C9B205630629F1D9002038BD012038BDB7
:10222000006801400010024008B500680649884275
:1022300008D10648016E41F080610166006E00F031
:102240008060009008BD000000680140001002405E
:1022500010B586B0044614216846FEF7A4F80F496D
:102260002068884218D10E48C16C41F00101C16458
:10227000C06C694600F0010005904FF4706000905A
:102280000220019000200290032003900D20049072
:102290004FF09040FFF77CFC06B010BD0068014095
:1022A0000010024070B50D460446FFF79DFD06463E
:1022B00007E0681C05D0FFF797FD801BA8420DD8EA
:1022C00065B12068D0F88803C043C003F1D4012071
:1022D00084F8DD00002084F8DC0070BD072084F85D
:1022E000DD00032070BD70B590F8DD30022B23D0E7
:1022F000022380F8DD30062920D08023046803EB18
:10230000C115635923F007069368334323F0180679
:10231000D368334363519425046805EBC1151368F2
:1023200063519824036804EBC11152685A5001218B
:1023300080F8DD10002070BD022070BD03681968B0
:1023400021F007049168214321F01804D16821434A
:102350001960036811685961516802689161E6E784
:102360002DE9F04F90F8DD40022C25D090F8DC40AC
:10237000012C21D04FF0010980F8DC90022480F874
:10238000DD4000274FF0070C062918D09C2404EBF1
:10239000C116012A39D08024A8254FF4005A4FF4E1
:1023A000405B05EBC11504EBC114022A2FD0042AAF
:1023B00045D0082A0BD144E00220BDE8F08F012A65
:1023C0000AD0022A0CD0042A0ED0082A10D080F895
:1023D000DDC080F8DC700EE002681968D1610AE0A7
:1023E00002681968516206E002681968916202E0A9
:1023F00002681968D16290F8DD10072948D080F88A
:10240000DD9080F8DC700020D7E7196835E04FF0E8
:10241000A408D0F800C008EBC1111A684CF80120DC
:102420005968002901680A5922F440522ED00A51F5
:1024300001680A59D3F804C042EA0C0218E019688E
:1024400021E04FF0AC08D0F800C008EBC1111A68C9
:102450004CF801205968002901680A5922F44042C9
:1024600014D00A5101680A59D3F804C042EA8C0218
:102470000A515968514503D1996802689151BAE7E8
:102480005945B8D1996802685151B4E70A51B2E789
:10249000012092E710B590F8DC20012A0ED001222D
:1024A00000F8DC2F0223437050F8DC3C1C680C431E
:1024B0001C60427000210170084610BD022010BD52
:1024C00070B5044690F8DD00022811D094F8DC00C5
:1024D00001280ED0012584F8DC50022084F8DD00AC
:1024E000204601F016F884F8DD50002084F8DC0066
:1024F00070BD022070BD10B590F8DC20012A10D00C
:10250000012200F8DC2F0223437050F8DC3CD3F8A2
:1025100094430C43C3F89443427000210170084671
:1025200010BD022010BD2DE9F041044690F8DD00F9
:1025300015460E46022826D094F8DC00012821D04A
:10254000012784F8DC70022084F8DD00062E1CD000
:10255000204601F04DF8C6EBC60004EB8000296868
:10256000016269684162A9688162E968C16229699A
:1025700001633146204600F04FFF062E15D0E86A71
:1025800040B112E00220BDE8F0811146204600F083
:1025900077FFE0E78021206801EBC6114258EB6D20
:1025A00022F4007242EA4322425084F8DD70002097
:1025B00084F8DC00E7E770B590F8DD30022B23D01B
:1025C00090F8DC30012B1FD0012380F8DC3002248E
:1025D00080F8DD40EC25046805EBC11561591668EB
:1025E00021F0100141EA061121F4801651683143AF
:1025F00021F48036D168314321F4003691683143AB
:102600009669012E02D00BE0022070BD21F0040675
:102610001169314321F002065169314341F0010152
:10262000615180F8DD30002180F8DC10084670BD73
:102630000248816842681144816070472800002088
:1026400010B50024032000F073F80F2000F008F804
:1026500008B1012401E000F025F8204610BD00007B
:1026600070B50E4E05460024706898B14FF47A712B
:10267000B1FBF0F00A490968B1FBF0F000F0A0FDF1
:1026800040B9102D06D200222946501E00F030F825
:10269000356000E00124204670BD000028000020C5
:1026A000340000200A4882B0016E41F00101016649
:1026B000016E01F001010091816D41F08051816551
:1026C000806D00F08050009002B000F0A1B80000D2
:1026D00000100240002809DB00F01F020121914098
:1026E0004009800000F1E020C0F8001170470000B0
:1026F000F0B40E4B1B680C46C3F30223C3F107056D
:10270000042D00D90425191D072901D2002300E05A
:10271000DB1E012606FA05F1491E214099409E4024
:10272000761E16403143F0BC01F06BBE0CED00E0AC
:10273000064900F0070208684FF6FF03184040EA18
:102740000220034A10430860704700000CED00E0CF
:102750000000FA052B492C4B0A6832214A432B49C9
:1027600040B1B0F5007F086829D020F4C06040F483
:1027700080602CE00868C0F34120022804D051F8A2
:10278000800F20F4807022E0D1F8800020F4807067
:10279000C1F88000086820F4C06040F40070086050
:1027A000B2FBF3F0401C00E0401E4A69520501D51F
:1027B0000028F9D1486940050AD503207047C0F3C5
:1027C0004120022806D051F8800F40F48070086044
:1027D00000207047D1F8800040F48070C1F880007C
:1027E000086820F4C06040F400700860B2FBF3F0A9
:1027F000401C00E0401E4A695205DBD50028F9D193
:10280000D8E700003400002040420F000070004074
:102810000248816841F48041816070470070004047
:102820002DE9F843044600680026BB4D00035ED541
:10283000A86D0027C00008D4A86D40F08050A8659E
:10284000A86D012700F080500090DFF8D092D9F8F1
:10285000001041F48071C9F80010FFF7C5FA8046F6
:1028600006E000BFFFF7C0FAA0EB080002282BD853
:10287000D9F80000C005F5D5D5F8900010F44070E7
:1028800014D0216D814211D0D5F89000D5F8901068
:1028900020F4407041F48031C5F89010D5F89010C4
:1028A00021F48031C5F89010C5F89000C00711D010
:1028B000FFF79AFA804641F2883907E0FFF794FA69
:1028C000A0EB0801494501D903260BE0D5F890009B
:1028D0008007F3D5D5F89000216D20F440700843AF
:1028E000C5F890001FB1A86D20F08050A865207831
:1028F000C00707D0D5F88800616820F003000843BE
:10290000C5F888002078800707D5D5F88800A16829
:1029100020F00C000843C5F888002078400707D550
:10292000D5F88800E16820F030000843C5F8880039
:102930002078000707D5D5F88800216920F0C0006D
:102940000843C5F888002078C00607D5D5F8880068
:10295000616920F440700843C5F88800207880063B
:1029600007D5D5F88800A16920F440600843C5F870
:1029700088002078400607D5D5F88800E16920F462
:1029800040500843C5F888002078000607D5D5F8E0
:102990008800216A20F440400843C5F88800208858
:1029A000C00507D5D5F88800616A20F44030084397
:1029B000C5F888002068800307D5D5F89C00A16A77
:1029C00020F003000843C5F89C002088800507D547
:1029D000D5F88800E16A20F440200843C5F8880053
:1029E000208840050FD5D5F88800216B20F44010D1
:1029F0000843C5F88800206BB0F5801F03D1E86854
:102A000040F48010E860208800050FD5D5F88800D4
:102A1000616B20F440000843C5F88800606BB0F596
:102A2000800F03D1E86840F48010E8602088C0047B
:102A30000FD5D5F88800A16B20F040700843C5F889
:102A40008800A06BB0F1807F03D1E86840F480106B
:102A5000E86020884FF0006180040ED5D5F888002A
:102A6000E26B20F040601043C5F88800E06B8842BC
:102A700003D1E86840F48010E860208840040ED557
:102A8000D5F88800226C20F040601043C5F888001B
:102A9000206C884203D1E86840F48010E860208808
:102AA00000040FD5D5F88800616C20F04050084331
:102AB000C5F88800606CB0F1805F03D1E86840F42D
:102AC0008030E8602068C0030FD5D5F88800A16C7D
:102AD00020F040400843C5F88800A06CB0F1804F5A
:102AE00003D1E86840F48030E860206840030FD5E7
:102AF000D5F89C00E16C20F440100843C5F89C0018
:102B0000E06CB0F5001F03D1E86840F48010E86085
:102B10003046BDE8F883000000100240007000401D
:102B20002DE9F0470E4605004FF0000725D0DFF8ED
:102B3000AC81D8F8000000F00F00B0420CD2D8F8F9
:102B4000001021F00F013143C8F80010D8F8000040
:102B500000F00F00B04210D12968614CC80741F263
:102B6000883A5AD06868DFF87C91032808D0022898
:102B700020682DD0400500282CDB0120BDE8F0871F
:102B800020688001F9D5E06800F00302E068C0F336
:102B90000310401C032A19D0534A00BFB2FBF0F0C7
:102BA000E268C2F306225043E268C2F34162521C5B
:102BB0005200B0FBF2F0484517D9A06810F0F00FB2
:102BC0000CD0880711D5A86840B10EE0474AE5E768
:102BD0008003D0E700F0BCF8484506D9A06820F093
:102BE000F00040F08000A0608027A068696820F0B5
:102BF00003000843A060FFF7F7F8814606E000BF36
:102C0000FFF7F2F8A0EB090151453AD8A0686968CE
:102C100000F00C00B0EB810FF2D12868810714D5C9
:102C2000400703D5A06840F4E060A0602878000762
:102C300005D5A06820F4605040F4E060A060A06872
:102C4000A96820F0F000084304E0802F03D1A068B9
:102C500020F0F000A060D8F80010404601F00F010D
:102C6000B14216D9016821F00F0131430160FFF72D
:102C7000BBF8074607E000BFFFF7B6F8C11B514598
:102C800001D903207AE7D8F8000000F00F00B04225
:102C9000F2D12878400705D5A068E96820F4E06003
:102CA0000843A0602878000706D5A068296920F4A9
:102CB000605040EAC100A06000F04AF8A1680C4AE8
:102CC000C1F30311515C01F01F01C84009490860BC
:102CD00009480068BDE8F047FFF7C2BC0020024089
:102CE0000010024000B4C4040024F40000127A0072
:102CF00066460008340000202800002001480068D3
:102D000070470000340000200548064900688968C3
:102D1000054AC1F30221515C01F01F01C840704710
:102D2000340000200010024076460008054806499D
:102D300000688968054AC1F3C221515C01F01F0196
:102D4000C84070473400002000100240764600085A
:102D5000184910B58868C0F381021748012A0BD0C2
:102D60008A684310C2F38102022A06D08A68C2F33D
:102D70008102032A03D0002010BD184610BDCA6886
:102D800002F00304CA68C2F30312521C032C02D0DF
:102D9000B0FBF2F001E0B3FBF2F0CA68C968C2F31D
:102DA00006225043C1F34161491C4900B0FBF1F0D8
:102DB00010BD0000001002400024F4002DE9F8438B
:102DC00004007AD02078F84DC00747D0A868E96899
:102DD00000F00C0001F003010C2802D0082817D0E5
:102DE00001E0032914D06068B0F5803F17D0B0F53A
:102DF000A02F286817D020F480302860286820F49D
:102E0000802028606068E0B1FEF7EEFF064614E01F
:102E10002868800322D560680028D2D01EE0286888
:102E200040F48030EDE740F480202860F7E700BFF1
:102E3000FEF7DAFF801B642870D828688003F7D576
:102E40000CE0FEF7D1FF064605E000BFFEF7CCFF21
:102E5000801B6428F0D828688003F7D42078800786
:102E60004CD5A868E96800F00C0001F003010C28BB
:102E700002D004280DD001E002290AD0E068002821
:102E800028682BD040F480702860FEF7ADFF06461E
:102E900019E02868400502D5E068002891D06868EC
:102EA000217C20F0FE4040EA01606860BF48006875
:102EB000FFF7D6FB002800D120E072E1FEF794FF77
:102EC000801B0228B8D828684005F7D56868217C9F
:102ED00020F0FE4040EA016068600FE020F480705E
:102EE0002860FEF781FF064605E000BFFEF77CFF85
:102EF000801B0228A0D828684005F7D42078000756
:102F000029D560690028D5F8940013D040F001005D
:102F1000C5F89400FEF768FF064606E090E000BFA3
:102F2000FEF762FF801B022886D8D5F89400800740
:102F3000F6D510E020F00100C5F89400FEF754FF2C
:102F4000064604E0FEF750FF801B022878D8D5F82B
:102F500094008007F6D42078400761D5A86D00263C
:102F6000C00008D4A86D40F08050A865A86D012667
:102F700000F0805000908E480168C90511D40168A6
:102F8000804641F480710160FEF72EFF074604E0A1
:102F9000FEF72AFFC01B022852D8D8F80000C0054F
:102FA000F6D5A068012815D00528D5F8900016D0D0
:102FB00020F00100C5F89000D5F8900020F0040042
:102FC000C5F89000A06841F28838B8B1FEF70CFF50
:102FD00007460EE0D5F8900040F00100F0E740F021
:102FE0000400C5F89000F5E7FEF7FEFEC11B414561
:102FF00026D8D5F890008007F6D50CE0FEF7F4FE51
:10300000074604E0FEF7F0FEC11B414518D8D5F88D
:1030100090008007F6D41EB1A86D20F08050A865FE
:103020002078800629D5A0690028D5F8980013D00B
:1030300040F00100C5F89800FEF7D6FE064606E00F
:1030400075E000BFFEF7D0FE801B02286FD8D5F8D0
:1030500098008007F6D510E020F00100C5F8980030
:10306000FEF7C2FE064604E0FEF7BEFE801B022805
:103070005DD8D5F898008007F6D4E069F0B3A96868
:10308000C1F3810103295DD00228286820F08070F7
:10309000286003D0FEF7A8FE04464BE0FEF7A4FE2E
:1030A000064604E0FEF7A0FE801B02283FD82868F1
:1030B0008001F7D4F4E908016FF00F0202EB01116F
:1030C0000843218A5204490802EB4151A26841EAAF
:1030D00002210843217D4FF07E42490802EB416105
:1030E0000843217B40EAC160E968324A1140084345
:1030F000E860286840F08070286000E05EE0E868E2
:1031000040F08070E860FEF76FFE044605E000BF07
:10311000FEF76AFE001B022809D828688001F7D54F
:103120004CE000BFFEF760FE001B022802D903201E
:10313000BDE8F88328688001F4D4E8681E49084097
:10314000E8603BE00128F3D0E868226A00F0030160
:10315000914226D1616A00F0F002090110399142D2
:103160001FD1A26A00F4FE41B1EB022F19D194F8ED
:103170002C2000F07841B1EBC26F12D1218E00F407
:10318000C00249084905A1F50011914209D194F8FE
:10319000341000F0C06049084906A1F10071814275
:1031A0000CD00120C4E700000010024028000020DD
:1031B000007000400C809F01FCFFEEFE0020B7E78E
:1031C00010B5401EB0F1807F01D3012010BD4FF03B
:1031D000E02460610F21601701F013F90020A06165
:1031E00007202061002010BD90F88410012918D01C
:1031F000012180F884102421C0F8881001680A6831
:103200000B6823F001030B6022F00051002242669C
:10321000036819602021C0F8881080F884201046C7
:1032200070470220704770B5044690F8840001286A
:103230001DD0012084F884002420C4F88800206870
:103240000568026822F0010202602068826822F0AC
:1032500060620A438260204600F036FE2068056006
:103260002020C4F88800002084F8840070BD02206B
:1032700070BD70B5044690F8840001281DD001206F
:1032800084F884002420C4F8880020680568026857
:1032900022F0010202602068826822F060420A4344
:1032A0008260204600F010FE206805602020C4F8EF
:1032B0008800002084F8840070BD022070BD10B525
:1032C000040003D0D4F8880010B107E0012010BD3D
:1032D000002084F88400204600F026F82420C4F85A
:1032E00088002068016821F001010160A06A10B126
:1032F000204600F00BFE204600F0ECFE0128E6D050
:103300002068416821F4904141602068816821F083
:103310002A0181602068016841F0010101602046B6
:10332000BDE8104000F056BEF0B59BB00446142135
:1033300015A8FDF738F854216846FDF734F83149EF
:103340002068314C07270025022688421FD1012022
:10335000CDE900056846FFF763FA08B1FDF7F7F815
:10336000206E40F480402066206E00F480401A9069
:10337000E06C40F00400E064E06CCDE9166500F01C
:1033800004001A903020159015A9204834E02049F7
:10339000884235D1684600960295FFF741FA08B198
:1033A000FDF7D5F8A06D40F40030A065A06D00F4E5
:1033B00000301A90E06C40F00100E064E06C00F036
:1033C00001001A90E06C40F00200E064E06CCDE98E
:1033D000166500F002001A904FF40040CDE918572E
:1033E000159015A94FF09040FEF7D2FB08201590DC
:1033F000CDE91665074815A9CDE91857FEF7C8FBB2
:103400001BB0F0BD00380140001002400008004829
:103410000044004000040048072912D2DFE801F010
:103420000A12181E242A04000068D0F8841341F000
:10343000010104E00068D0F8841341F00201C0F8F3
:10344000841370470068D0F8841341F00401F6E754
:103450000068D0F8841341F00801F0E70068D0F864
:10346000841341F01001EAE70068D0F8841341F0BA
:103470002001E4E70068D0F8841341F04001DEE762
:1034800070B503681A68D3F8A0534C6922F0200283
:103490002646144324F0C002202E2BD08C69022C27
:1034A00028D0032C2BD0042C2ED022F0E00200BF19
:1034B00022F40064CA69224322F480640A6A224327
:1034C00022F0C0644A6A224322F000648A6A2243DE
:1034D000CC6A22F0404242EA840222F000544A6B55
:1034E000096B224325F4803421431A600068C0F838
:1034F000A01370BD22F0C00242F02002D8E722F0F3
:10350000800242F04002D3E722F0400242F0800203
:10351000CEE7F0B50024E426056806EBC11755F8A0
:1035200007C0B82606EBC116AE59402A20D00EDCE3
:10353000082A2CD006DC012A1AD0022A27D0042A15
:1035400031D115E0102A13D0202A2CD11FE0B2F57A
:10355000007F1CD005DC802A19D0B2F5807F22D1F3
:1035600006E0B2F5806F03D0B2F5006F1BD10EE01C
:103570004FF0BC0E0EEBC11E5A6845F80E204FF0FE
:10358000C00E05680EEBC1119A686A500BE0C424A6
:1035900004EBC1145A682A51C825046805EBC1110F
:1035A0009A6862501024FE21A1401A682CEA010C8E
:1035B000A240D96842EA0C02A14011431A69D3F82B
:1035C00014C01546A2400A430CFA04FC99694CEA5F
:1035D000020CA14041EA0C01082D06D1B20504D429
:1035E000B20102D4DA69A24011430068C151F0BDB2
:1035F0002DE9F04F8024036804EBC1169C5924F098
:1036000070449C5103689A469D59E82404EBC11408
:10361000A64653F80490E42404EBC114A3461C59B5
:10362000D3F8A033576925F020053D43202F24D03F
:103630009769022F21D0032F24D0042F27D025F4FF
:10364000D07500BF25F40067D5693D4325F4806738
:10365000156A3D4325F0C067556A3D4325F0006774
:10366000956A3D4325F07047D56A3D43576B25F475
:103670000035B7F1005F0FD010E025F4C07545F0BC
:103680002005DFE725F4807545F08005DAE725F0B1
:10369000800545F48075D5E745F4003525F04007F1
:1036A000956BD2F850802F4327F4802C976D47EA12
:1036B0000C07DFF8D0C007EA0C0748EA070892F8C1
:1036C0003C7029F03F0C07F03F0747EA0C0727F052
:1036D000004C176C47EA0C0725B924F4807C546C25
:1036E00044EA0C04D2F848C0BCF5606F02D0BCF5C7
:1036F000F05F01D1402D03D124F4F0544CEA0404CE
:1037000024F48045D46C2C43556D062927D2DFE87C
:1037100001F003090F151B21126B23F4003343EA58
:1037200042031CE0126B23F4802343EA820316E079
:10373000126B23F4002343EAC20310E0126B23F45C
:10374000801343EA02130AE0126B23F4001343EAE6
:10375000421304E0126B23F4800343EA82134AF815
:103760000680066846F80E70066846F80B40D424BA
:10377000026804EBC11155500068C0F8A033BDE8E1
:10378000F08F0000FFFF06FEFEE700EB8100006EF9
:1037900000F0F840704700EB8100006E00F0F84048
:1037A00070478068C0F3C00070478068C0F3C000F5
:1037B00070478068C0F3800070478068C0F3800065
:1037C0007047042303EAD15310B518444369C1F389
:1037D000045107248C40A3438A401343436110BD26
:1037E000042303EAD15310B518444369C1F30451CB
:1037F00007248C40A3438A401343436110BD00EB70
:103800008100016E21F0004111430166704700EB19
:103810008100016E21F000411143016670470000F4
:1038200070B59AB000241794189420210FA8199409
:10383000FCF7B9FD3C216846FCF7B5FD33484FF075
:10384000A041042501604FF44031C0E901148561B5
:103850000121C460C0E9044104774477016280F823
:103860002440C462046380F838100903C16380F8FF
:103870004040FDF701FC08B172B6FEE74FF400408E
:10388000CDE91804062617A917962048FDF710F968
:1038900008B172B6FEE71E48CDE90F067F26CDE9D6
:1038A0001146CDE913540FA91848FDF7B1F908B135
:1038B00072B6FEE717480090092001900720CDE975
:1038C0000206CDE9045402208DF8244008908DF8BA
:1038D00025408DF826400A940B948DF830406946B7
:1038E0000A48FCF737FE08B172B6FEE70A480090B6
:1038F00040F20F10019069460448FCF72BFE0028A7
:1039000001D072B6FEE71AB070BD0000380000208A
:10391000020030040800900C1000C01030B589B0CF
:1039200020216846FCF73FFD194818490024016032
:103930004FF44031C0E90114C46004250461C0E9BA
:103940000545047744770121016280F8244080F81E
:1039500038400903C16380F84040FDF78DFB08B192
:1039600072B6FEE70B4800900620CDE901047F20E7
:103970000594CDE9030569460548FDF749F9002896
:1039800001D072B6FEE709B030BD00000001005062
:10399000A40000200400600800B58DB03021684606
:1039A000FCF701FD1549144808600846FDF798FF2B
:1039B00008B172B6FEE7002002218DF804008DF8F0
:1039C00005000290CDE906100091CDE904010390B5
:1039D000024669460948FDF79DFE08B172B6FEE74A
:1039E000102269460548FDF795FE002801D072B601
:1039F000FEE70DB000BD000000080050A00100204F
:103A000000B58DB030216846FCF7CDFC154914484F
:103A100008600846FDF764FF08B172B6FEE70020B3
:103A200002218DF804008DF805000290CDE9061002
:103A30000091CDE904010390024669460948FDF76B
:103A400069FE08B172B6FEE7102269460548FDF727
:103A500061FE002801D072B6FEE70DB000BD000087
:103A600000140050B4010020F0B587B0142168465E
:103A7000FCF799FC1F48C16C41F00401C164C16CA2
:103A800001F004010591C16C41F00101C164C16CF8
:103A900001F001010591C16C41F00201C164C06CEB
:103AA000154E00F002000590002201213046FEF77D
:103AB00096F9012202213046FEF791F90320009089
:103AC00001250024CDE90154694630460394FEF7F0
:103AD0005FF80A4F6E03002231463846FEF77FF941
:103AE0000096CDE90154694638460394FEF750F834
:103AF00007B0F0BD00100240000400480008004874
:103B0000F0B5BBB0002429942A942B946021684618
:103B10002C94FCF748FC1C2131A8FCF744FC389499
:103B20003994242120A83A94FCF73DFC202118A8C0
:103B3000FCF739FC8F488E49C0E900148460FEF719
:103B400013FB08B172B6FEE704218A48FEF752F96A
:103B500008B172B6FEE70A218648FEF7A3FB08B15A
:103B600072B6FEE7082529AA4FF6DF7003272C95C9
:103B700082E8910006217F48FEF7B5FB08B172B6D6
:103B8000FEE70094019401260294CDE903460894CF
:103B90000594069407940D9409940A940B940C943C
:103BA0006A46062173481794FEF7BDFC08B172B649
:103BB000FEE748F22640299029AA00212B976D485C
:103BC000FEF791FB08B172B6FEE73194349431AA46
:103BD000002168483794FEF7EEFC08B172B6FEE7A4
:103BE000009405200A94CDE90E4001944FF48070B2
:103BF000CDE910401294149415946A4600215D4852
:103C00001694FEF790FC08B172B6FEE744F213205A
:103C1000389038AB012200215648FEF7A1FB08B1CD
:103C200072B6FEE72820CDE92040CDE92440229459
:103C300023942694279420AA00214E482894FEF726
:103C40000BF908B172B6FEE70427CDE9184720202A
:103C5000CDE91A54CDE91C401E9418AB0122002175
:103C600044481F94FEF72CFC08B172B6FEE7199485
:103C700018AB022200213F481A94FEF721FC08B13C
:103C800072B6FEE729AA01213A48FEF72CFB08B1DB
:103C900072B6FEE731AA012136483294FEF78BFC5A
:103CA00008B172B6FEE76A4601213248FEF73BFCD6
:103CB00008B172B6FEE7012238AB11462D48FEF777
:103CC0004FFB08B172B6FEE720AA01212948FEF792
:103CD000C3F808B172B6FEE7CDE9195718AB042254
:103CE00001212448FEF7ECFB08B172B6FEE71994F7
:103CF00018AB082201211F481A94FEF7E1FB08B116
:103D000072B6FEE72D942E942F940021194830941A
:103D1000FEF70AFA08B172B6FEE77820CDE92F0463
:103D20000225CDE92D652DAA01211248FEF7DAF80A
:103D300008B172B6FEE74020CDE92F04CDE92D652C
:103D40002DAA04210B48FEF7CDF808B172B6FEE7A4
:103D5000002201210748FEF7AFF90022042105489F
:103D6000FEF7AAF90348FEF773FA3BB0F0BD000076
:103D700000680140C8010020174810B515490160CE
:103D80004FF4E1314160002181600C22C160C0E943
:103D900004128161C161016241628162FFF78FFAA1
:103DA00008B172B6FEE700210B48FFF762FA08B1CE
:103DB00072B6FEE700210848FFF735FA08B172B67F
:103DC000FEE70548FFF710FA002801D072B6FEE7BB
:103DD00010BD000000380140C4020020174810B593
:103DE000154901604FF4E1314160002181600C22EE
:103DF000C160C0E904128161C161016241628162F6
:103E0000FFF75DFA08B172B6FEE700210B48FFF735
:103E100030FA08B172B6FEE700210848FFF703FA4E
:103E200008B172B6FEE70548FFF7DEF9002801D0B9
:103E300072B6FEE710BD00000044004058030020A9
:103E4000FEE7FEE770477047FEF7F2BB00B593B0A0
:103E500038216846FCF7A7FA14210EA8FCF7A3FA4C
:103E60000020FEF777FC0220C1010391402104915C
:103E70000421CDE9080100905521CDE90A100790F1
:103E80000C900D906846FEF799FF08B172B6FEE7F8
:103E90000F200E9003200F900020109011904FF4EF
:103EA0008060129004210EA8FEF73AFE002801D08F
:103EB00072B6FEE713B000BD0248016841F470011C
:103EC0000160704788ED00E030B5416EB9B102681D
:103ED00091689268C1F342610B4B520F9C5CE50004
:103EE00003F10804A25CB5FBF2F2A0F86A205A5C68
:103EF000615CD200B2FBF1F1A0F8681030BD012185
:103F0000A0F86A10F8E700005646000890F828105C
:103F1000090706D501684A68836B22F400421A43F8
:103F20004A6090F82810C90706D001684A68C36A39
:103F300022F400321A434A6090F82810890706D507
:103F400001684A68036B22F480321A434A6090F891
:103F50002810490706D501684A68436B22F480227D
:103F60001A434A6090F82810C90606D501688A6885
:103F7000C36B22F480521A438A6090F82810890695
:103F800006D501688A68036C22F400521A438A60DD
:103F900090F82810490611D501684A68436C22F44C
:103FA00080121A434A60416CB1F5801F06D1016846
:103FB0004A68836C22F4C0021A434A6090F82810C1
:103FC000090606D501684A68C06C22F40022024343
:103FD0004A6070472DE9F84300260446C0F8906017
:103FE000FDF702FF8046206800684FF020050007BB
:103FF0006FF07E4713D543460022290420460097E0
:1040000000F0B4F958B1216851E8000F20F08000A9
:1040100041E80002002AF6D1C4F8885021E0206867
:104020000068400722D5434600224FF48001204615
:10403000009700F09BF9C8B1216851E8000F20F407
:10404000907041E80002002AF6D12068083050E85C
:10405000001F21F0010140E80012002AF5D1C4F848
:104060008C5084F884600320BDE8F883C4F888503D
:10407000C4F88C5044F86C6F666026760020F3E735
:1040800010B5026852E8001F21F4907142E8001355
:10409000002BF6D10E4B0268083252E8001F19407F
:1040A00042E80014002CF6D1C16E012908D1016844
:1040B00051E8002F22F0100241E80023002BF6D136
:1040C0002021C0F88C100021C166416710BD00009E
:1040D000FEFFFFEF2DE9F041044601688068226988
:1040E000E3691043626900251A431043DFF84CC2AC
:1040F0000A68934B1A4002430A6020684168E268EC
:1041000021F44051114341602168A069614501D00B
:10411000226A10438A688B4B1A4002438A602068E7
:10412000C16A626A21F00F011143C16286492368A6
:1041300086488B420DD1D0F8880010F0030006D0DD
:10414000012867D0022854D0032851D164E001200F
:104150004FE07F498B420BD1D0F8880010F00C0063
:1041600047D0042845D0082852D00C2840D153E02D
:1041700078498B420BD1D0F8880010F0300038D04D
:10418000102847D0202843D0302831D144E072494C
:104190008B420BD1D0F8880010F0C00029D0402805
:1041A00038D0802834D0C02822D135E06B498B42EA
:1041B0000ED1D0F8880010F440701AD0B0F5807F8E
:1041C00028D0B0F5007F23D0B0F5407F10D123E098
:1041D00063450DD1D0F8880010F4406009D0B0F5E7
:1041E000806F17D0B0F5006F12D0B0F5406F13D0CC
:1041F00010205B4A5B4F00264FF40041634539D1E4
:1042000060B102280DD004280DD0082831D10EE06D
:104210000220EEE70420ECE70820EAE7FEF774FD51
:1042200003E0114603E0FEF793FD01007BD0606AD6
:1042300037F810206768B1FBF2F007EB47038342C1
:1042400069D8B0EB073F66D8002308461946FCF74B
:1042500033F8090241EA106102027808101871412E
:104260003A460023FCF728F83F4AA0F540719142F6
:1042700057D950E0E3694FF6EF788B422BD10928EC
:1042800049D2DFE800F005080D48254848480E00EF
:10429000FEF73AFD01E0FEF749FD010001D142E0E1
:1042A0001146606A37F81000B1FBF0F04100606819
:1042B00001EB5001B1FBF0F1A1F1100040452AD80B
:1042C0004FF6F07201EA0200C1F34201084328E010
:1042D000FEF73EFDE1E709281DD2DFE800F0050802
:1042E0000D1C1E1C1C1C0E00FEF70EFD01E0FEF74F
:1042F0001DFD010001D116E01146606A37F810007B
:10430000B1FBF0F1606801EB5001B1FBF0F0A0F1FE
:104310001001414504D9012505E0FEF719FDE8E744
:1043200080B22168C8600120A4F86A0024F8680FF0
:104330002846E6602661BDE8F0810000008000406C
:10434000F369FFCFFFF4FF11003801400010024075
:104350000044004000480040004C00400050004035
:104360000024F4003E460008FFFC0F002DE9F04752
:10437000994617460D4604464FF00008089E33E064
:10438000701C31D0FDF730FDA0EB0900B04218D809
:10439000BEB120680168490726D5802D24D0402D64
:1043A00022D0C169C94309070DD4082505622046FA
:1043B000FFF766FEC4F8905084F884800120BDE8C1
:1043C000F0870320FBE7C069C04300050CD42168D7
:1043D0004FF4006008622046FFF752FE2020C4F828
:1043E000900084F88480ECE72068C06935EA00001A
:1043F00004D00020B842C3D00020E0E70120F9E754
:10440000FEE70907090E002804DB00F1E02080F830
:104410000014704700F00F0000F1E02080F8141D38
:104420007047000008B5FEF70BF9FFF70FFDFFF727
:104430001BFB7A48816C41F004018164816C01F0BE
:1044400004010091816C41F001018164806C0022C3
:1044500000F00100009011460B20FEF749F90B20F7
:10446000FEF738F9FFF7DCF9FFF758FAFFF748FBDA
:10447000FFF792FA6B486A490024502680E8520000
:104480004FF48025C0E9035444618461FCF7A0FF28
:1044900008B172B6FEE7634861492430091D016026
:1044A000891504614160C0E9026444618461FCF7DC
:1044B0008FFF08B172B6FEE7FFF75EFCFFF78EFCD8
:1044C0005848574948300C31402680E85200046172
:1044D000C46044618461FCF77BFF08B172B6FEE7FB
:1044E00050484F496C30103180E85200C0E9035405
:1044F00044618461FCF76CFF08B172B6FEE7FFF718
:104500007FFA012202214848FDF769FC454840F640
:104510002623002210219030FDF716FA414840F67C
:10452000253300221021A430FDF70EFA3D4840F259
:1045300084740022234611469030FDF705FA39486D
:10454000002223461146A430FDF7FEF9354810211C
:104550009030FDF70BFA33481021A430FDF706FA2E
:10456000304800219030FDF701FA2E480021A43098
:10457000FDF7FCF90120FDF7F9FA2A48FDF7A4F848
:1045800028482430FDF7A0F826484830FDF79CF86D
:1045900024486C30FDF798F80120FDF7E7FA21492F
:1045A0000520B8310968C1F88C031E480122114664
:1045B000B830FDF781FD1B4801220421B830FDF71A
:1045C0007BFD18480F21B830FDF795FF08B172B692
:1045D000FEE714484FF4C021B830FDF75BFF08B187
:1045E00072B6FEE7FDF700FC104C4FF4FA774FF47B
:1045F00000550F4EC4F80000FBF778FF00BFFDF731
:10460000F3FB2168401AB842F6D3FDF7EDFB2060BA
:1046100029463046FDF7DBFBEEE7000000100240C4
:1046200004020140100100200004004800000020A6
:10463000000800484FF04070E1EE100A704701009A
:1046400002000400060008000A000C001000200010
:10465000400080000001010101030701000008047F
:104660000204080101010000000000000000010236
:10467000030406070809000000000102030400000B
:10468000A0460008000000203800000014020008C6
:10469000D846000838000020780A000030020008E0
:1046A000000000000000000000000000000000000A
:1046B00000000000000000000000000000000000FA
:1046C00000000000000000001000000001000000D9
:0846D000000000000024F400CA
:04000005080001D915
:00000001FF
